:100000000C9462000C948A000C948A000C948A0070
:100010000C948A000C948A000C948A000C948A0038
:100020000C948A000C948A000C948A000C948A0028
:100030000C948A000C948A000C948A000C948A0018
:100040000C9448060C948A000C9416060C94F00547
:100050000C948A000C948A000C948A000C948A00F8
:100060000C948A000C948A00000000080002010031
:100070000003040700000000000000000000000072
:10008000240027002A0000000000250028002B0083
:1000900000000000230026002900010204081020AF
:1000A000408001020408102001020408102004040A
:1000B0000404040404040202020202020303030310
:1000C0000303920611241FBECFEFD8E0DEBFCDBFE1
:1000D00012E0A0E0B1E0ECE2FBE102C005900D927D
:1000E000A230B107D9F722E0A2E0B2E001C01D9230
:1000F000A33FB207E1F710E0C2E6D0E004C02197C9
:10010000FE010E94640CC136D107C9F70E944D0759
:100110000C94940D0C940000CF93DF93EC01680FC6
:10012000791F80E0C617D707A1F0E991E827AE2F25
:10013000AF70B0E0A05FBE4F9C91F0E084E0F59519
:10014000E7958A95E1F7E050FF4FE081892F8E27F0
:10015000E9CFDF91CF910895AF92BF92CF92DF9216
:10016000EF92FF920F931F93CF93DF936C017B016C
:100170008B01040F151FEB015E01AE18BF08C017FD
:10018000D10759F06991D601ED91FC910190F08170
:10019000E02DC6010995892B79F7C501DF91CF9133
:1001A0001F910F91FF90EF90DF90CF90BF90AF9095
:1001B0000895FC01538D448D252F30E0842F90E06D
:1001C000821B930B541710F0CF9608950197089552
:1001D000FC01918D828D981761F0A28DAE0FBF2F1B
:1001E000B11D5D968C91928D9F5F9F73928F90E071
:1001F00008958FEF9FEF0895FC01918D828D9817E0
:1002000031F0828DE80FF11D858D90E008958FEF1C
:100210009FEF0895FC01918D228D892F90E0805CE5
:100220009F4F821B91098F73992708958BE092E06D
:100230000E940A0121E0892B09F420E0822F089511
:1002400080E090E0892B29F00E94160181110C9426
:1002500000000895FC01A48DA80FB92FB11DA35A69
:10026000BF4F2C91848D90E001968F739927848FD6
:10027000A689B7892C93A089B1898C9183708064F9
:100280008C93938D848D981306C00288F389E02D9A
:1002900080818F7D80830895EF92FF920F931F934B
:1002A000CF93DF93EC0181E0888F9B8D8C8D981329
:1002B0001AC0E889F989808185FF15C09FB7F89435
:1002C000EE89FF896083E889F98980818370806481
:1002D00080839FBF81E090E0DF91CF911F910F91CC
:1002E000FF90EF900895F62E0B8D10E00F5F1F4FDB
:1002F0000F731127E02E8C8D8E110CC00FB607FCEA
:10030000FACFE889F989808185FFF5CFCE010E9477
:100310002A01F1CFEB8DEC0FFD2FF11DE35AFF4FBA
:10032000F0829FB7F8940B8FEA89FB898081806205
:10033000CFCFCF93DF93EC01888D8823B9F0AA89C2
:10034000BB89E889F9898C9185FD03C0808186FD90
:100350000DC00FB607FCF7CF8C9185FFF2CF8081DF
:1003600085FFEDCFCE010E942A01E9CFDF91CF9129
:10037000089590E0FC01E859FF4F2491FC01E656F6
:10038000FF4F3491FC01E255FF4FE491EE23C9F099
:10039000222339F0233001F1A8F4213019F1223061
:1003A00029F1F0E0EE0FFF1FEA57FF4FA591B4913E
:1003B0008FB7F894EC91611126C030953E233C93A1
:1003C0008FBF08952730A9F02830C9F0243049F7AD
:1003D000809180008F7D03C0809180008F77809313
:1003E0008000DFCF84B58F7784BDDBCF84B58F7D70
:1003F000FBCF8091B0008F778093B000D2CF8091F7
:10040000B0008F7DF9CF3E2BDACF3FB7F8948091C3
:10041000030290910402A0910502B091060226B554
:10042000A89B05C02F3F19F00196A11DB11D3FBF2C
:10043000BA2FA92F982F8827BC01CD01620F711DFB
:10044000811D911D42E0660F771F881F991F4A95F5
:10045000D1F70895DC01ED91FC910480F581E02D48
:10046000099521E0892B09F020E0822F0895FC01F5
:10047000468957894115510521F183A181111BC07E
:1004800015A28FEF84A3DF0130E020E024173507A9
:1004900094F413968C911397811109C075A112964B
:1004A0008C91129794A1982394A3872B85A32F5FF7
:1004B0003F4F1296EBCF85A1862331F084A16823AC
:1004C00031F482E090E0089590E080E0089581E0CA
:1004D00090E00895AF92BF92CF92DF92EF92FF9299
:1004E0000F931F93CF93DF936C01042FD0E0C0E0F4
:1004F00010E0AA24A394B12CD601ED91FC910680C2
:10050000F781E02D002321F041E0C730D10509F04B
:1005100040E0E62EF12C617070E0C6010995892B50
:1005200039F0C5010C2E01C0880F0A94EAF7182B88
:10053000B701759567952196C830D105E9F6812FE9
:10054000DF91CF911F910F91FF90EF90DF90CF90AF
:10055000BF90AF900895EF92FF920F931F93CF93A8
:10056000DF93EC018B0140E065E5888199810E9471
:100570006A02E880F980E801085F1F4F699140E056
:10058000C7010E946A02C017D107C1F7DF91CF915E
:100590001F910F91FF90EF900895CF92DF92EF920D
:1005A000FF920F931F93CF93DF938C01EB01E091A8
:1005B000B102F091B20286A597A50E942A02882373
:1005C000D1F18091B1029091B202B8018E960E9451
:1005D000AB02E091B102F091B20240E06EEB86A571
:1005E00097A50E946A027E016E0189E0C80ED11CA7
:1005F0008E01E091B102F091B20240E06FEF86A56A
:1006000097A50E946A02F80181938F01CE16DF063A
:1006100081F7E091B102F091B20286A597A50E9400
:100620002A02813041F4F70181917F01811105C0D7
:10063000E017F107C1F790E009C068E070E0CE0173
:100640000E948C0091E028852813F5CF892FDF9137
:10065000CF911F910F91FF90EF90DF90CF90089571
:100660000895FC01A4A5B5A58C9197A1892B8C9325
:1006700097A102A4F3A5E02D8081672B19F0982B98
:100680009083089590959823FBCFDC019A96ED9185
:10069000FC919B9797968C919081672B19F0892BF1
:1006A0008083089580958923FBCFDC019C96ED9192
:1006B000FC919D97908197968C918095892380835A
:1006C0000895FC01A0A5B1A59C9187A1982321E0E4
:1006D00030E011F430E020E0C9010895DC01ED9133
:1006E000FC910088F189E02D09941F93CF93DF934B
:1006F000EC01162F662359F061E070E00E946E0352
:100700001EA390E080E0DF91CF911F910895E881D2
:10071000F9810484F585E02D0995F2CF0E948F0DB3
:10072000FC0101900020E9F73197AF01481B590BFC
:10073000BC018BE092E00C94AC008F929F92AF9240
:10074000BF920F931F93CF93DF93CDB7DEB7A197DF
:100750000FB6F894DEBF0FBECDBF19A2423008F429
:100760004AE08E010F5D1F4F842E912CB12CA12CDD
:10077000A50194010E942E0CE62FB901CA01EA30AE
:10078000F4F4E05DD801EE938D01232B242B252B6F
:1007900079F790E080E0109719F0CD010E94900366
:1007A000A1960FB6F894DEBF0FBECDBFDF91CF91FB
:1007B0001F910F91BF90AF909F908F900895E95C2B
:1007C000E1CFCF93DF930E949003EC0184E591E0A9
:1007D0000E9490038C0F9D1FDF91CF910895DC0143
:1007E000ED91FC910484F585E02D0994FF920F931F
:1007F0001F93CF93DF93EC018B01F42E8EA18823FE
:1008000041F0E881F9810084F185E02D60E0CE01BE
:1008100009950115110579F1F89470E060E0CE01B9
:100820000E946E038FE090E00197F1F7CE010E94E5
:10083000EF038BE190E00197F1F7E881F981028401
:10084000F385E02DCE0109958C01FF2041F0E88170
:10085000F9810084F185E02D61E0CE01099578945D
:100860008BED90E00197F1F7C801DF91CF911F91D7
:100870000F91FF900895F89470E060E0CE010E941F
:100880006E038BEE90E00197F1F7CE010E94EF032B
:10089000FF2041F0E881F9810084F185E02D61E0DD
:1008A000CE010995789483E290E0DCCFCF93DF937B
:1008B000EC018EA1882341F0E881F9810084F18563
:1008C000E02D60E0CE01099570E060E0CE010E946D
:1008D0006E038BE797E00197F1F7F894CE010E9441
:1008E000EF0383E191E00197F1F7E881F981028458
:1008F000F385E02DCE0109959C017894E3E6F6E0BE
:100900003197F1F781E090E0232B11F490E080E043
:10091000DF91CF9108952F923F924F925F926F9205
:100920007F928F929F92AF92BF92CF92DF92EF927F
:10093000FF920F931F93CF93DF93CDB7DEB76097EE
:100940000FB6F894DEBF0FBECDBF9B878A877E8728
:100950006D87DC019E960D911C91F80181A192A1F9
:100960008F3F9F4F0CF461C0BE016F5F7F4F5B01F3
:10097000C8014996988B8F87D501E8E01D92EA95CA
:10098000E9F7D801ED91FC910480F581E02DC801D3
:100990000995892B09F049C0F8012689378990E02B
:1009A00080E03296821793071CF411820196F9CFEA
:1009B000D80193961C9240E060EFC8010E946A0241
:1009C0005EEF652E77247A94D12CC12CC6018770F6
:1009D000992722242394312C02C0220C331C8A959F
:1009E000E2F72C86260143E0559447944A95E1F7B7
:1009F0004986D801ED91FC910680F781E02D40E019
:100A000061E070E0C80109957C01D801ED91FC918D
:100A10000680F781E02D40E061E070E0C8010995B3
:100A2000009781F0EF2809F469C0AA85BB859E96DE
:100A3000ED91FC918FEF9FEF92A381A3178A168A05
:100A400080E0B3C0EF2809F059C0B985B73069F329
:100A5000BB2379F0F80181A192A1C816D9060CF444
:100A60003FC08C159D0509F46EC03601F12CE12CB8
:100A700007C0622DC8010E9437027C01029751F322
:100A8000D801ED91FC910680F781E02D40E0B7019F
:100A9000C8010995B985B1115AC021E0F80123A315
:100AA000468957899101E114F10411F430E020E006
:100AB000F80190E080E0841795070CF048C063814E
:100AC00061110BC062817C8567236217130629F0D0
:100AD000A1E0A383D80193961C9201963296EBCFA6
:100AE000E40DF51D818D822121E090E009F420E0E4
:100AF000E22EF92E8111C4CF3601C2CF882483940F
:100B0000912C892B11F0912C812C740129852111B4
:100B1000B7CF622DC8010E9437028230910509F4D7
:100B2000AFCF8816990609F4ABCF88E0F501AF8501
:100B3000B88901900D928A95E1F7F80172A261A23D
:100B400077FE1ACF72CFEE24E394F12C99CFEF28E1
:100B500031F0F501E40DF51D8081282A2082BFEFD8
:100B6000CB1ADB0AE0E4CE16D10409F02FCF67E000
:100B700070E0C5010E948C009885891356CF88E0EB
:100B8000F501D801599601900D928A95E1F7D801A7
:100B900092967C926E92919788E0F501AD85BE8524
:100BA00001900D928A95E1F781E060960FB6F89476
:100BB000DEBF0FBECDBFDF91CF911F910F91FF9090
:100BC000EF90DF90CF90BF90AF909F908F907F90ED
:100BD0006F905F904F903F902F9008950C94060D6A
:100BE0001F920F920FB60F9211242F933F934F93A2
:100BF0005F936F937F938F939F93AF93BF93EF9385
:100C0000FF938BE092E00E942A01FF91EF91BF9148
:100C1000AF919F918F917F916F915F914F913F9194
:100C20002F910F900FBE0F901F9018951F920F924B
:100C30000FB60F9211242F938F939F93EF93FF93EF
:100C4000E0911B02F0911C028081E0912102F09161
:100C5000220282FD1BC09081809124028F5F8F73DE
:100C600020912502821741F0E0912402F0E0E55F37
:100C7000FD4F958F80932402FF91EF919F918F916B
:100C80002F910F900FBE0F901F9018958081F4CF79
:100C90001F920F920FB60F9211242F933F938F93B1
:100CA0009F93AF93BF938091070290910802A09108
:100CB0000902B0910A023091020223E0230F2D377E
:100CC00058F50196A11DB11D2093020280930702E1
:100CD00090930802A0930902B0930A028091030244
:100CE00090910402A0910502B09106020196A11D07
:100CF000B11D8093030290930402A0930502B09368
:100D00000602BF91AF919F918F913F912F910F90CC
:100D10000FBE0F901F90189526E8230F0296A11D75
:100D2000B11DD2CFCF93DF9310920E0210920D021D
:100D300088EE93E0A0E0B0E080930F029093100261
:100D4000A0931102B093120280E391E090930C0201
:100D500080930B0285EC90E0909318028093170229
:100D600084EC90E090931A028093190280EC90E05A
:100D700090931C0280931B0281EC90E090931E02E2
:100D800080931D0282EC90E09093200280931F02DA
:100D900086EC90E09093220280932102109224022C
:100DA000109225021092260210922702CFEBD2E079
:100DB0001092EE021092ED028FEF9FEF9093E102FE
:100DC0008093E0021092D6021092D5021092D702C0
:100DD0001092E50282E491E09093C0028093BF02FA
:100DE000E0EBF0E08491811102C00E948F0DECE9EC
:100DF000F0E024912093E60290E0880F991FFC0117
:100E0000E057FF4F459154915093E8024093E70219
:100E1000FC01EA57FF4F459154915093EA024093E9
:100E2000E902FC01E458FF4FA591B491B093EC02A4
:100E3000A093EB028C91E22FE095E823EC93E091F4
:100E4000E902F091EA0280819091E602892B808389
:100E50008FEB92E00E94EF03D093EE02C093ED027D
:100E60001092BE021092BD021092A902D093B2025B
:100E7000C093B1021092AF021092B0021092A80279
:100E800089E08093AB0281E08093AC028093AD0255
:100E90008093AE02DF91CF910895CF93DF93CDB7CA
:100EA000DEB761970FB6F894DEBF0FBECDBF789462
:100EB00084B5826084BD84B5816084BD85B582605F
:100EC00085BD85B5816085BD80916E008160809310
:100ED0006E00109281008091810082608093810079
:100EE0008091810081608093810080918000816089
:100EF000809380008091B10084608093B1008091E4
:100F0000B00081608093B00080917A00846080930B
:100F10007A0080917A00826080937A0080917A00D2
:100F2000816080937A0080917A00806880937A0053
:100F30001092C100E0911B02F0911C0282E08083BC
:100F4000E0911702F09118021082E0911902F091DD
:100F50001A028FEC808310922302E0911F02F0911D
:100F6000200286E08083E0911D02F0911E028081C4
:100F700080618083E0911D02F0911E028081886073
:100F80008083E0911D02F0911E0280818068808341
:100F9000E0911D02F0911E0280818F7D808387E5A4
:100FA00091E00E94E103E091B102F091B20206A447
:100FB000F7A5E02D8FEF9FEF92A381A3178A168AE2
:100FC0001092AF021092B00211E0BE01665F7F4F37
:100FD0008091B1029091B2020E948B04882309F49F
:100FE00087C067E070E0CE010A960E948C00998964
:100FF0009813EBCF8091AF028F5F8093AF028A8509
:10100000883231F008F05AC0803111F08232E9F6AE
:101010008091B0028F5F8093B0028091A80281110D
:1010200039C0E091B102F091B20286A597A50E9465
:101030002A028091B1029091B202BE01665F7F4F99
:101040008E960E94AB02E091B102F091B20240E0B4
:1010500064EB86A597A50E946A02E091B102F09127
:10106000B20286A597A5DC01ED91FC910680F7817F
:10107000E02D40E061E070E00995082FE091B102B9
:10108000F091B20286A597A50E942A02011102C022
:101090001093A8028A858031E1F0BE016F5F7F4F17
:1010A000CE010A960E94CD02882331F08D818F33C4
:1010B000D9F058F48F31D1F080E00EC08B3309F4B1
:1010C000A7CF823409F081CFA3CF8F3521F08F379E
:1010D00099F78CE001C08BE09091AB02981708F073
:1010E00074CF8093AB0271CF8AE0F6CF89E0F4CF62
:1010F00022242A94322C00E010E082E891E00E9441
:101100009003E091B102F091B20286A597A50E94EA
:101110002A02E091B102F091B20240E06CEC86A5A7
:1011200097A50E946A02E091B102F091B20240914B
:10113000A80264E486A597A50E946A028091AC0289
:10114000882309F43CC0E091AB028091AD02882372
:1011500009F463C08091A80281115FC08FB7F89431
:10116000C0900702D0900802E0900902F0900A02B5
:101170008FBFE091B102F091B20286A597A5DC0184
:10118000ED91FC910680F781E02D40E061E070E098
:1011900009958130A1F02FB7F894809107029091C2
:1011A0000802A0910902B0910A022FBF8C199D0973
:1011B000AE09BF098E3E9240A105B105D0F28DE97E
:1011C00091E00E94E1038091B1029091B202DC01B2
:1011D0009E96ED91FC9132A221A2178A168ABE0139
:1011E000665F7F4F0E948B04882391F067E070E078
:1011F000CE010A960E948C009989981309C0BE01FD
:101200006F5F7F4FCE010A960E94CD02811149C0C7
:101210008AED91E00E94E103A3C0E9508EEE92E0D6
:10122000E33038F4F0E0EE0FFF1FEA5DFE4F8081FF
:1012300091816C01990FEE08FF088091A902882323
:1012400029F060E08091AA020E94B9010E94050283
:101250004B015C01C114D104E104F104B9F00E9416
:101260000502681979098A099B09683E734081055E
:10127000910580F341E0C41AD108E108F10858EE65
:10128000850E53E0951EA11CB11CE4CF8091A902EC
:10129000882309F494CF61E08091AA020E94B901E9
:1012A0008ECF6A8170E0762F6627770F770F770FE2
:1012B0002981B8E02B9F90011124262B372B8A859A
:1012C0008031E1F468856623C9F070E08F81AB015D
:1012D000481B5109CA019695982F8827979587959D
:1012E0000E941A0CCB018097B90153E0660F771F5B
:1012F0005A95E1F760789C01260F371F213854EE8C
:1013000035070CF485CFB901330F880B990B0E9478
:10131000F30A20E030E040E05CE30E94A80B6B01A0
:101320007C014B015C0120E030E04EEF52EC0E946A
:10133000BD0A882309F46CCF82EA91E00E949003F1
:10134000A7019601C701B6010E94150C8823A1F0E0
:101350008EEC91E00E94900384E591E00E9490035E
:101360000115110509F4C9CE0E941601882309F45C
:10137000C4CE0E940000C1CE26013701E89477F860
:101380002FEF3FEF4FE75FE7C301B2010E94150C5B
:1013900081110DC02FEF3FEF4FE75FE7C301B201AF
:1013A0000E94BD0A18161CF482ED91E0D3CF2FEFF6
:1013B0003FEF4FE75FE4C701B6010E94A30B181689
:1013C0001CF486ED91E0C6CF2FEF3FEF4FE75FECC7
:1013D000C701B6010E94BD0A87FDF3CF20E030E0CF
:1013E000A901C701B6010E94BD0A87FF0BC06DE2CB
:1013F0008BE092E00E944C0146015701B7FAB0948D
:10140000B7F8B0942AE037ED43EA5BE3C501B401D5
:101410000E94510A4B015C010E94C20A6B017C01CF
:101420000E94F10A9B01AC01C501B4010E94500A5F
:101430004B015C014AE0C701B6010E949D036EE2C8
:101440008BE092E00E944C0120E030E040E251E469
:10145000C501B4010E94A80B4B015C010E94C20AA5
:101460006B01F12CE12C4AE0C701B6010E949D03FB
:10147000C701B6010E94F10A9B01AC01C501B4018C
:101480000E94500A20E030E040E251E40E94A80BA4
:101490000E94C20A90E080E04AE00E949D035CCF77
:1014A0005058BB27AA270E94680A0C94690B0E9417
:1014B0005B0B38F00E94620B20F039F49F3F19F467
:1014C00026F40C94580B0EF4E095E7FB0C94520BA9
:1014D000E92F0E947A0B58F3BA1762077307840743
:1014E000950720F079F4A6F50C949C0B0EF4E0958A
:1014F0000B2EBA2FA02D0B01B90190010C01CA01CE
:10150000A0011124FF27591B99F0593F50F4503E78
:1015100068F11A16F040A22F232F342F4427585F6A
:10152000F3CF469537952795A795F0405395C9F782
:101530007EF41F16BA0B620B730B840BBAF091503A
:10154000A1F0FF0FBB1F661F771F881FC2F70EC0D9
:10155000BA0F621F731F841F48F4879577956795AC
:10156000B795F7959E3F08F0B0CF9395880F08F098
:101570009927EE0F9795879508950E942E0B08F4F2
:1015800081E008950E94820B88F09F5798F0B92F50
:101590009927B751B0F0E1F0660F771F881F991FA8
:1015A0001AF0BA95C9F714C0B13091F00E949C0BA3
:1015B000B1E008950C949C0B672F782F8827B85FB3
:1015C00039F0B93FCCF3869577956795B395D9F700
:1015D0003EF490958095709561957F4F8F4F9F4F0A
:1015E0000895E89409C097FB3EF490958095709516
:1015F00061957F4F8F4F9F4F9923A9F0F92F96E95F
:10160000BB279395F695879577956795B795F111D3
:10161000F8CFFAF4BB0F11F460FF1BC06F5F7F4F70
:101620008F4F9F4F16C0882311F096E911C0772382
:1016300021F09EE8872F762F05C0662371F096E88B
:10164000862F70E060E02AF09A95660F771F881F5A
:10165000DAF7880F9695879597F90895990F0008FE
:10166000550FAA0BE0E8FEEF16161706E807F90774
:10167000C0F012161306E407F50798F0621B730B0F
:10168000840B950B39F40A2661F0232B242B252B90
:1016900021F408950A2609F4A140A6958FEF811D33
:1016A000811D089597F99F6780E870E060E00895D4
:1016B0009FEF80EC089500240A941616170618066A
:1016C0000906089500240A94121613061406050646
:1016D0000895092E0394000C11F4882352F0BB0FD7
:1016E00040F4BF2B11F460FF04C06F5F7F4F8F4F3A
:1016F0009F4F089557FD9058440F551F59F05F3F75
:1017000071F04795880F97FB991F61F09F3F79F023
:1017100087950895121613061406551FF2CF4695A5
:10172000F1DF08C0161617061806991FF1CF869527
:101730007105610508940895E894BB27662777270B
:10174000CB0197F908950E942E0B08F48FEF0895AE
:101750000E94BB0B0C94690B0E945B0B38F00E943B
:10176000620B20F0952311F00C94520B0C94580B43
:1017700011240C949D0B0E947A0B70F3959FC1F37A
:10178000950F50E0551F629FF001729FBB27F00D2F
:10179000B11D639FAA27F00DB11DAA1F649F662784
:1017A000B00DA11D661F829F2227B00DA11D621FD3
:1017B000739FB00DA11D621F839FA00D611D221F8D
:1017C000749F3327A00D611D231F849F600D211D71
:1017D000822F762F6A2F11249F5750409AF0F1F0F4
:1017E00088234AF0EE0FFF1FBB1F661F771F881F5D
:1017F00091505040A9F79E3F510580F00C94520B38
:101800000C949D0B5F3FE4F3983ED4F38695779557
:101810006795B795F795E7959F5FC1F7FE2B880F02
:10182000911D9695879597F908950E942E0B880B28
:10183000990B089597FB072E16F4009407D077FDB7
:1018400009D00E94500C07FC05D03EF4909581957C
:101850009F4F0895709561957F4F0895A1E21A2ECC
:10186000AA1BBB1BFD010DC0AA1FBB1FEE1FFF1F44
:10187000A217B307E407F50720F0A21BB30BE40B94
:10188000F50B661F771F881F991F1A9469F76095DB
:101890007095809590959B01AC01BD01CF01089595
:1018A000AA1BBB1B51E107C0AA1FBB1FA617B70786
:1018B00010F0A61BB70B881F991F5A95A9F78095A2
:1018C0009095BC01CD010895EE0FFF1F0590F49196
:1018D000E02D09940F931F93CF93DF9382309105EE
:1018E00010F482E090E0E091F102F091F20230E039
:1018F00020E0B0E0A0E0309799F42115310509F41B
:101900004AC0281B390B24303105D8F58A819B81C8
:101910006115710589F1FB0193838283FE0111C07A
:10192000408151810281138148175907E0F048171F
:10193000590799F4109761F012960C931297139629
:101940001C933296CF01DF91CF911F910F91089593
:101950000093F1021093F202F4CF2115310551F0FA
:101960004217530738F0A901DB019A01BD01DF01DD
:10197000F801C1CFEF01F9CF9093F2028093F10209
:10198000CDCFFE01E20FF31F8193919322503109D5
:1019900039832883D7CF2091EF023091F002232B97
:1019A00041F420912201309123013093F0022093E1
:1019B000EF0220912001309121012115310541F4E0
:1019C0002DB73EB74091240150912501241B350BC2
:1019D000E091EF02F091F002E217F307A0F42E1B62
:1019E0003F0B2817390778F0AC014E5F5F4F241783
:1019F000350748F04E0F5F1F5093F0024093EF02FF
:101A0000819391939FCFF0E0E0E09CCFCF93DF9361
:101A10000097E9F0FC01329713821282A091F10243
:101A2000B091F202ED0130E020E01097A1F42081A6
:101A30003181820F931F2091EF023091F00228171D
:101A4000390709F061C0F093F002E093EF02DF91F3
:101A5000CF910895EA01CE17DF07E8F54A815B814F
:101A60009E0141155105B1F7E901FB83EA834991D4
:101A70005991C40FD51FEC17FD0761F48081918146
:101A80000296840F951FE90199838883828193814F
:101A90009B838A83F0E0E0E012968D919C911397EE
:101AA0000097B9F52D913C911197CD010296820FC7
:101AB000931F2091EF023091F0022817390739F671
:101AC000309751F51092F2021092F102B093F002A9
:101AD000A093EF02BCCFD383C28340815181840F96
:101AE000951FC817D90761F44E5F5F4F88819981B0
:101AF000480F591F518340838A819B81938382833E
:101B00002115310509F0B0CFF093F202E093F10214
:101B10009ECFFD01DC01C0CF13821282D7CF81E0BE
:0C1B200090E0F8940C94940DF894FFCF22
:101B2C00009D23BE46DB65F88C11AF32CA57E974B1
:101B3C00005EBCE2613FDD83C29C7E20A3FD1F41A1
:101B4C000000F30280005E00BC0077010000000082
:101B5C004C01AC00D90099010A01E800FC0000001E
:101B6C0000003003EE055604F603750361035503BC
:101B7C00450331030D0A0044616C6C61732054659C
:101B8C006D706572617475726520494320436F6E88
:101B9C0074726F6C204C6962726172792044656D4D
:101BAC006F0052657175657374696E672074656D2D
:101BBC007065726174757265732E2E2E00444F4ED3
:101BCC00450054656D706572617475726520666F41
:101BDC0072207468652064657669636520312028FD
:101BEC00696E6465782030292069733A20006E6133
:101BFC006E00696E66006F7666004572726F723A9F
:101C0C0020436F756C64206E6F7420726561642064
:101C1C0074656D7065726174757265206461746150
:021C2C000000B6
:00000001FF
